{
  "address": "0xDc64a140Aa3E981100a9becA4E685f962f0cF6C9",
  "abi": [
    {
      "inputs": [],
      "stateMutability": "nonpayable",
      "type": "constructor"
    },
    {
      "inputs": [],
      "name": "check",
      "outputs": [],
      "stateMutability": "view",
      "type": "function"
    }
  ],
  "transactionHash": "0x74c9543605699dded82b7d13b46fd3fa124fb03078c422350c4d48ad7bfb998e",
  "args": [],
  "numDeployments": 5,
  "solcInputHash": "417515b33a7454cedd3a2ae001dc04cb",
  "bytecode": "0x608060405234801561001057600080fd5b5060ff6100427f33352d61d371521e8f47c013f0a0d2457ad6db285cbc4bb29df6f8d79c59f9c161004e60201b60201c565b60000181905550610058565b6000819050919050565b6101fd806100676000396000f3fe608060405234801561001057600080fd5b506004361061002b5760003560e01c8063919840ad14610030575b600080fd5b61003861003a565b005b61006f6100667f33352d61d371521e8f47c013f0a0d2457ad6db285cbc4bb29df6f8d79c59f9c1610071565b6000015461007b565b565b6000819050919050565b6101118160405160240161008f919061017d565b6040516020818303038152906040527ff82c50f1000000000000000000000000000000000000000000000000000000007bffffffffffffffffffffffffffffffffffffffffffffffffffffffff19166020820180517bffffffffffffffffffffffffffffffffffffffffffffffffffffffff8381831617835250505050610114565b50565b61012b8161012361012e61014f565b63ffffffff16565b50565b60006a636f6e736f6c652e6c6f679050600080835160208501845afa505050565b61015a819050919050565b610162610198565b565b6000819050919050565b61017781610164565b82525050565b6000602082019050610192600083018461016e565b92915050565b7f4e487b7100000000000000000000000000000000000000000000000000000000600052605160045260246000fdfea26469706673582212205513ecbe0318e80f887aa6db5fad1be0c7506e85ef29e9f0c57fdda60b7f602364736f6c63430008140033",
  "devdoc": {
    "kind": "dev",
    "methods": {},
    "version": 1
  },
  "userdoc": {
    "kind": "user",
    "methods": {},
    "version": 1
  },
  "storageLayout": {
    "storage": [],
    "types": null
  }
}